{
  "contractName": "CoopCoin",
  "abi": [
    {
      "inputs": [],
      "payable": false,
      "stateMutability": "nonpayable",
      "type": "constructor",
      "signature": "constructor"
    },
    {
      "anonymous": false,
      "inputs": [
        {
          "indexed": true,
          "name": "_from",
          "type": "address"
        },
        {
          "indexed": true,
          "name": "_to",
          "type": "address"
        },
        {
          "indexed": false,
          "name": "_value",
          "type": "uint256"
        }
      ],
      "name": "Transfer",
      "type": "event",
      "signature": "0xddf252ad1be2c89b69c2b068fc378daa952ba7f163c4a11628f55a4df523b3ef"
    },
    {
      "constant": false,
      "inputs": [
        {
          "name": "sender",
          "type": "address"
        },
        {
          "name": "receiver",
          "type": "address"
        },
        {
          "name": "amount",
          "type": "uint256"
        }
      ],
      "name": "registerPayment",
      "outputs": [
        {
          "name": "sufficient",
          "type": "bool"
        }
      ],
      "payable": false,
      "stateMutability": "nonpayable",
      "type": "function",
      "signature": "0x1d81086d"
    },
    {
      "constant": true,
      "inputs": [
        {
          "name": "account",
          "type": "address"
        }
      ],
      "name": "getCoopCoinBalance",
      "outputs": [
        {
          "name": "",
          "type": "uint256"
        }
      ],
      "payable": false,
      "stateMutability": "view",
      "type": "function",
      "signature": "0x01f79f85"
    },
    {
      "constant": true,
      "inputs": [
        {
          "name": "account",
          "type": "address"
        }
      ],
      "name": "isCreator",
      "outputs": [
        {
          "name": "",
          "type": "bool"
        }
      ],
      "payable": false,
      "stateMutability": "view",
      "type": "function",
      "signature": "0xefd46065"
    }
  ],
  "bytecode": "0x608060405234801561001057600080fd5b5060018054600160a060020a03191633179055610246806100326000396000f3fe6080604052600436106100565763ffffffff7c010000000000000000000000000000000000000000000000000000000060003504166301f79f85811461005b5780631d81086d146100ad578063efd4606514610111575b600080fd5b34801561006757600080fd5b5061009b6004803603602081101561007e57600080fd5b503573ffffffffffffffffffffffffffffffffffffffff16610151565b60408051918252519081900360200190f35b3480156100b957600080fd5b506100fd600480360360608110156100d057600080fd5b5073ffffffffffffffffffffffffffffffffffffffff813581169160208101359091169060400135610179565b604080519115158252519081900360200190f35b34801561011d57600080fd5b506100fd6004803603602081101561013457600080fd5b503573ffffffffffffffffffffffffffffffffffffffff166101f9565b73ffffffffffffffffffffffffffffffffffffffff1660009081526020819052604090205490565b73ffffffffffffffffffffffffffffffffffffffff8381166000818152602081815260408083208054870190559386168083528483208054600288040190558451868152945192949093927fddf252ad1be2c89b69c2b068fc378daa952ba7f163c4a11628f55a4df523b3ef929181900390910190a35060019392505050565b60015473ffffffffffffffffffffffffffffffffffffffff9081169116149056fea165627a7a72305820969d95d02bb9617853413cd269453bacb6fe5ce0820540af2f2dacb5157acbd40029",
  "source": "pragma solidity >=0.4.22 <0.6.0;\r\n\r\n// This is just a simple example of a coin-like contract.\r\n// It is not standards compatible and cannot be expected to talk to other\r\n// coin/token contracts. If you want to create a standards-compliant\r\n// token, see: https://github.com/ConsenSys/Tokens. Cheers!\r\n\r\ncontract CoopCoin {\r\n\tmapping (address => uint) balances;\r\n\taddress creator;\r\n\r\n\tevent Transfer(address indexed _from, address indexed _to, uint256 _value);\r\n\r\n\tconstructor() public {\r\n\t\tcreator = msg.sender;\r\n\t}\r\n\r\n\tfunction registerPayment(address sender, address receiver, uint amount) public returns(bool sufficient) {\r\n\t\tbalances[sender] += amount;\r\n\t\tbalances[receiver] += amount/2;\r\n\t\temit Transfer(sender, receiver, amount);\r\n\t\treturn true;\r\n\t}\r\n\r\n\tfunction getCoopCoinBalance(address account) public view returns(uint) {\r\n\t\treturn balances[account];\r\n\t}\r\n\r\n\tfunction isCreator(address account) public view returns(bool) {\r\n\t\treturn (account == creator);\r\n\t}\r\n}",
  "sourcePath": "/home/vagrant/projects/helloworld/contracts/contracts/CoopCoin.sol",
  "compiler": {
    "name": "solc",
    "version": "0.5.0+commit.1d4f565a.Emscripten.clang"
  },
  "schemaVersion": "3.0.1",
  "updatedAt": "2019-01-13T08:47:23.139Z",
  "devdoc": {
    "methods": {}
  },
  "userdoc": {
    "methods": {}
  }
}